:020000040800F2
:100000003805002071090008450100084701000873
:100010004B0100084F0100085301000800000000D8
:100020000000000000000000000000005701000870
:1000300059010008000000005B0100085D01000894
:100040008B0900088B0900088B0900088B09000840
:100050008B0900088B0900088B0900088B09000830
:100060008B0900088B0900088B0900088B09000820
:100070008B0900088B0900088B0900088B09000810
:100080008B0900088B0900088B0900088B09000800
:100090008B0900088B0900088B0900088B090008F0
:1000A0008B0900088B0900088B0900088B090008E0
:1000B0008B0900088B0900088B0900088B090008D0
:1000C0008B0900088B0900088B0900088B090008C0
:1000D0008B09000831040008730400088B0900082C
:1000E0008B0900088B0900088B0900088B090008A0
:1000F0008B0900088B0900088B0900088B09000890
:100100008B0900088B0900088B0900088B0900087F
:100110008B0900088B0900088B0900088B0900086F
:100120008B0900088B0900088B0900088B0900085F
:10013000DFF80CD001F038FD00480047AD0700089B
:1001400038050020704700BFFEE700BFFEE700BF94
:10015000FEE700BFFEE7704770477047704700003A
:1001600000B587B0012144F2040000F030FF4FF4E5
:100170000070ADF8180018208DF81B0003208DF8D2
:100180001A0006A9C34800F065FC4FF48060ADF882
:10019000180004208DF81B0006A9BE4800F05AFC88
:1001A0000020ADF80C004FF4614002900020ADF843
:1001B0000E00ADF81000ADF814000C20ADF81200E0
:1001C00002A9B54800F0ABFF012240F22551B24828
:1001D00001F03DF8012240F22441AF4801F037F828
:1001E0000121AD4801F027F80121042000F0EFFEC5
:1001F0000121480400F0F8FE0420ADF81800182092
:100200008DF81B0003208DF81A0006A9A14800F004
:1002100021FC0820ADF8180004208DF81B0006A969
:100220009C4800F017FC4FF4E13002900020ADF83C
:100230000C00ADF80E00ADF81000ADF814000C2065
:10024000ADF8120002A9954800F069FF012240F2C2
:100250002551924800F0FBFF0121904800F0EBFF90
:100260004FF4E06001F01EFB25208DF80400012012
:100270008DF8050000208DF8060001208DF807009C
:1002800001A801F014FB26208DF8040001208DF850
:10029000050000208DF8060001208DF8070001A858
:1002A00001F005FB07B000BD70B504460D46E1B294
:1002B000794801F02DF800BF7748008800F08000F1
:1002C0000028F9D0204670BDF0B503460D4616460D
:1002D000002729460A2E03D0002008702846F0BDCA
:1002E00033B9302001F8010B002008702846F6E7EA
:1002F000002B03DA2D2001F8010B5B4242F2107251
:100300000DE093FBF2F404B937B104F1300001F8C9
:10031000010B04FB123301270A2092FBF0F2002AA2
:10032000EFDC002008702846D9E70FB470B586B01E
:1003300006460CA8019073E00B9800785C281CD14D
:100340000B98401C0B9000786E2809D072280FD1B2
:100350000D21304600F0DCFF0B98401C0B900BE0A9
:100360000A21304600F0D4FF0B98401C0B9003E0AC
:100370000B98401C0B9000BF4BE00B980078252891
:1003800040D10B98401C0B900078642818D073283B
:1003900033D1019810C801900BE02178304600F06D
:1003A000B7FF00BF4021304601F020F80028F9D007
:1003B000641C20780028F0D10B98401C0B9020E0A2
:1003C000019820C801900A2202A92846FFF77CFF65
:1003D00002AC0BE02178304600F09AFF00BF4021CC
:1003E000304601F003F80028F9D0641C207800287A
:1003F000F0D10B98401C0B9003E00B98401C0B9025
:1004000000BF06E00B9810F8011B0B90304600F07F
:100410007FFF00BF4021304600F0E8FF0028F9D000
:100420000B980078002887D106B070BC5DF814FBEB
:1004300010B540F22551184800F0EEFF50B11648B3
:10044000001D0088C4B216490878411C144A117076
:1004500014490C5440F224410F4800F0DDFF38B13C
:100460000D4800880C48001D008801200E490870C6
:1004700010BD10B540F22551084800F0CDFF38B14D
:100480000648001D0088C4B22146044800F040FF21
:1004900010BD000000080140003801400044004049
:1004A00044000020CE0000204500002008B50121B6
:1004B000082000F08CFD0121480500F095FDC020CA
:1004C000ADF8000003208DF802001C208DF8030019
:1004D0006946894800F0BEFA08BD1FB50020ADF896
:1004E00004004BF6FF70ADF80600A020ADF8080040
:1004F0004FF48060ADF80A000001ADF80C0049F639
:100500004040009001217D4801F061F869467B4838
:1005100000F0DFFF0121794801F095F81FBD70B5AB
:1005200004460D460121754801F075F800BF744975
:10053000724801F051F90028F9D00022A0216F483B
:1005400001F0BFF800BF6F496C4801F045F9002881
:10055000F9D02146694801F0AEF800BF69498231FF
:10056000664801F039F90028F8D02946634801F0BF
:10057000A2F800BF63498231604801F02DF90028DC
:10058000F8D001215D4801F052F870BD70B5064603
:100590000D46144600BF4FF40031584801F03EF9B3
:1005A0000028F8D10121554801F035F800BF544921
:1005B000524801F011F90028F9D00022A0214F483B
:1005C00001F07FF800BF4F494C4801F005F90028C1
:1005D000F9D00121494800F0FAFF3146474801F0BF
:1005E0006AF800BF47498231444801F0F5F8002815
:1005F000F8D00121414801F00EF800BF40493F48C2
:1006000001F0EAF80028F9D00122A0213B4801F0CE
:1006100058F800BF3A49491C384801F0DDF8002875
:10062000F8D016E0012C07D10021344801F00BF876
:100630000121324800F0FBFF31493F312F4801F0E2
:10064000CBF830B12D4801F038F828706D1C601ED1
:1006500084B2002CE6D10121284800F0F4FF70BDDF
:1006600010B5294C214629A001F0B0FA08222146F4
:100670000020FFF78BFF00202146087210BD10B547
:100680000446214625A001F0A1FAFFF7E9FF10BDBD
:1006900008B5012269461046FFF778FF9DF8000073
:1006A00040B100BF012269460220FFF76FFF9DF8AD
:1006B000000008BD0020FCE708B50122694610468D
:1006C000FFF764FF9DF8000068B100BF0222694691
:1006D0000320FFF75BFF9DF801009DF8001000EB81
:1006E000012080B208BD0020FCE710B5FFF7DEFE58
:1006F000FFF7F3FE10BD0000000C01400054004065
:100700000100030002000700C4000020687976653C
:100710007273696F6E3D2573200A00006374726CFA
:1007200020636D643D2564200A00000070B5044616
:100730000D4635B11B4830F814101B4800F037FA4D
:1007400005E0184830F81410174800F032FA70BD70
:1007500010B50446134830F81410134800F01AFA84
:1007600008B1012010BD0020FCE708B501210820D8
:1007700000F02DFC4FF46040ADF8000010208DF823
:10078000030003208DF802006946074800F062F973
:100790004FF46041044800F00AFA08BD10B5FFF7B5
:1007A000E4FF10BD24000020000C014001F058F9C6
:1007B000FFF7D6FC14A001F009FA17490968886808
:1007C000804716490968086980471CE0144800788A
:1007D000012818D11348017813A001F0F7F900207F
:1007E0001649104A127888540E480078042805DD0E
:1007F00013A001F0EBF9114800F055F80020094969
:10080000087007490870E1E7787368656C6C2049E7
:100810006E6974200D0A00004000002020000020B6
:10082000450000204400002052656365697665201C
:100830002564206279746573200D0A00CE000020C3
:100840002573000070B502460B4615461C46002174
:100850000EE0605C28B1685C665CB04206D00020A7
:1008600070BD09B10120FBE70020F9E7481CC1B2C7
:10087000FF29EEDB0020F3E72DE9F04105462E4687
:10088000FF27002409E0324850F82410304601F0D8
:1008900067F908B9E7B202E0641C142CF3DB00BF6F
:1008A0003846BDE8F0812DE9F04105462E46304638
:1008B000FFF7E2FF0446214626A001F087F90C2C41
:1008C00041D2DFE804F0060D141B2127313B3C3DEB
:1008D0003E3F24480068416823A001F077F933E0E7
:1008E00020480068816820A001F070F92CE01D48C4
:1008F0000068C1681CA001F069F925E0194800688A
:100900004169012088471FE01648006841690020BE
:10091000884719E0134909688869804707463946BE
:1009200012A001F053F90FE00E490968C869804729
:10093000074639460DA001F049F905E004E003E05F
:1009400002E001E000E000BF00BFBDE8F081000070
:1009500048000020415420434D44203D2564200A96
:100960000000000020000020257300002564000026
:100970000648804706480047FEE7FEE7FEE7FEE739
:10098000FEE7FEE7FEE7FEE7FEE7FEE7611A000886
:100990003101000810B50446CC48844208D1012139
:1009A000042000F02EFB0021042000F02AFB46E08A
:1009B000C748844208D10121082000F022FB002111
:1009C000082000F01EFB3AE0C248844208D1012111
:1009D000102000F016FB0021102000F012FB2EE08A
:1009E000BD48844208D10121202000F00AFB0021EB
:1009F000202000F006FB22E0B848844208D1012103
:100A0000402000F0FEFA0021402000F0FAFA16E043
:100A1000B348844208D10121802000F0F2FA00217D
:100A2000802000F0EEFA0AE0AE48844207D10121AE
:100A3000801500F0E6FA0021A01500F0E2FA10BDE2
:100A400010B50121084600F0DCFA0021012000F079
:100A5000D8FA10BD2DE9F0410246002500260020FD
:100A600000230024002791F803C00CF00F0591F833
:100A700003C00CF0100CBCF1000F03D091F802C0C1
:100A80004CEA050591F800C0BCF1000F31D01468A4
:100A900000202BE04FF0010C0CFA00F3B1F800C07D
:100AA0000CEA03069E4220D183004FF00F0C0CFA93
:100AB00003F7BC4305FA03FC4CEA040491F803C0B5
:100AC000BCF1280F06D14FF0010C0CFA00FCC2F863
:100AD00014C00AE091F803C0BCF1480F05D14FF0F3
:100AE000010C0CFA00FCC2F810C0401C0828D1D33D
:100AF0001460B1F800C0BCF1FF0F34DD5468002071
:100B00002EE000F1080C4FF0010808FA0CF3B1F8E0
:100B100000C00CEA03069E4221D183004FF00F0C67
:100B20000CFA03F7BC4305FA03FC4CEA040491F801
:100B300003C0BCF1280F05D100F1080C08FA0CF82D
:100B4000C2F8148091F803C0BCF1480F07D100F13E
:100B5000080C4FF0010808FA0CF8C2F81080401C8D
:100B60000828CED35460BDE8F0814FF6FF710180B4
:100B7000022181700421C1707047024600209368F1
:100B80000B400BB1012000E000207047014688684F
:100B900080B2704702460020D3680B400BB10120A1
:100BA00000E0002070470146C86880B270470161CC
:100BB0007047416170470AB1016100E041617047CF
:100BC000C16070474FF480320A4382618161826163
:100BD00082698269704702460020434B18684FF6CD
:100BE0008073184040EA021008433F4B186070477A
:100BF0003E49C8617047F0B50A4600230024002131
:100C0000002500F00046B6F1004F02D1364EF169E2
:100C100001E0354E7168C0F3034583B200F440161D
:100C2000B6F5401F08D121F070612F4E766826F08E
:100C300070662D4F7E6012E000F48016B6F5801FBE
:100C400006D1032606FA05F4A14341F0706106E0DF
:100C5000460D360103FA06F6B14341F0706122B148
:100C6000460D360103FA06F6314300F00046B6F1B0
:100C7000004F02D11C4EF16101E01B4E7160F0BDCE
:100C800030B500228B071C0F0F2303FA04F2164B1A
:100C900008338C1053F824309343134C08348D10D0
:100CA00044F8253023468C1053F824308C07240F49
:100CB00000FA04F423430C4C08348D1044F825301A
:100CC00030BD0A49DC31086070470000000801406F
:100CD000000C0140001001400014014000180140C8
:100CE000001C0140002001400000014000002042A3
:100CF000E048006840F00100DE49086008464068AE
:100D0000DD490840DB49486008460068DB49084087
:100D1000D84908600846006820F48020086008462A
:100D2000406820F4FE0048604FF41F008860704760
:100D3000D049096821F48031CE4A11601146096812
:100D400021F480211160B0F5803F03D0B0F5802FF1
:100D50000ED106E0C749096841F48031C54A1160E7
:100D600007E0C449096841F4A021C24A116000E0CB
:100D700000BF00BF704710B50146002200230020CD
:100D80004A11012A02D1BB4C236806E0022A02D193
:100D9000B84C236A01E0B74C636A01F01F020124DA
:100DA00094401C400CB1012000E0002010BD38B57B
:100DB000002000900024002500BF3120FFF7DBFF5A
:100DC00005460098401C00904FF6FF71009888423D
:100DD00001D0002DF1D03120FFF7CDFF08B1012463
:100DE00000E00024204638BD01460020A14A1068DA
:100DF00020F0F80040EAC10010607047A049086088
:100E00007047024600209B4B586820F47C1042EA51
:100E100001031843974B586070479949086670471B
:100E200001460020934A506820F0030008435060B8
:100E300070479048406800F00C0070470146002061
:100E40008C4A506820F0F00008435060704701461B
:100E50000020884A506820F4E060084350607047E2
:100E600001460020834A506820F4605040EAC100E7
:100E70005060704729B17F4A527A02437D4B5A72C3
:100E800004E07C4A527A82437A4B5A7270477C491A
:100E9000D8310860704701460020764A506820F437
:100EA00040400843506070470021724A2032117060
:100EB000704A82F82010012802D004280AD104E0E8
:100EC00001216C4A2032117005E00521694A203267
:100ED000117000E000BF00BF70476A4908607047AA
:100EE0006449096A0143634A11627047654944399C
:100EF0000860704730B500210022002400235D4DBA
:100F00006D6805F00C0121B1042905D0082923D111
:100F100005E05D4D056022E05B4D05601FE0554D2D
:100F20006D6805F47012534D6D6805F48034022528
:100F300005EB92421CB9554D554305600BE04D4DF4
:100F40006D6805F400351DB1504D5543056002E054
:100F50004D4D5543056002E04B4D056000BF00BF9D
:100F6000444D6D6805F0F0010909494D6B5C056859
:100F7000DD4045603F4D6D6805F4E061090A444D70
:100F80006B5C4568DD4085603A4D6D6805F46051E5
:100F9000C90A3F4D6B5C4568DD40C560354D6D68E5
:100FA00005F44041890B3B4D6B5CC568B5FBF3F51F
:100FB000056130BD29B12F4A526902432D4B5A6158
:100FC00004E02C4A526982432A4B5A61704729B186
:100FD000284A92690243274B9A6104E0254A9269A4
:100FE0008243244B9A61704729B1224AD269024355
:100FF000204BDA6104E01F4AD26982431D4BDA615B
:10100000704729B11B4AD26802431A4BDA6004E0E8
:10101000184AD2688243174BDA60704729B1154AE3
:1010200012690243134B1A6104E0124A12698243A7
:10103000104B1A61704713494039086070471049D6
:10104000C86470470B49C87170470A48406A40F04D
:10105000807008494862704701460020054A92683E
:101060000A400AB1012000E000207047014988725F
:1010700070470000001002400000FFF8FFFFF6FE7E
:10108000000042428004424200127A0000093D0002
:1010900098000020A800002010B50446FB488442B8
:1010A00009D101218803FFF7ACFF00214FF48040F4
:1010B000FFF7A7FF32E0F648844209D10121480436
:1010C000FFF7ACFF00214FF40030FFF7A7FF25E04A
:1010D000F048844209D101218804FFF79FFF0021D5
:1010E0004FF48020FFF79AFF18E0EB48844209D1C3
:1010F0000121C804FFF792FF00214FF40020FFF701
:101100008DFF0BE0E548844208D101210805FFF777
:1011100085FF00214FF48010FFF780FF10BD2DE9FF
:10112000F04786B005460E460024A24600BFA14601
:101130000027B08900B100BF2F462C8A4CF6FF7003
:101140000440F08804432C82AC894EF6F31004402E
:10115000B08831890843718908430443AC81AC8A63
:101160004FF6FF400440B0890443AC8201A8FFF76A
:10117000C1FEC648874202D1DDF810A001E0DDF8CB
:101180000CA0A88900F4004040B10AEBCA0000EBB3
:101190000A1031684900B0FBF1F807E00AEBCA0019
:1011A00000EB0A1031688900B0FBF1F86420B8FB4D
:1011B000F0F004012009642101FB1089A88900F4E2
:1011C000004040B1322000EBC900B0FBF1F000F06C
:1011D0000700044308E0322000EB09106421B0FB53
:1011E000F1F000F00F0004432C8106B0BDE8F08759
:1011F0004FF41651016000218180C18001810C21D2
:10120000418100218181704710B502460020108A7B
:101210004FF2FF0318400B884C8823438C882343EC
:10122000CC8823431843108210BD002101804180E7
:101230008180C180704721B1828942F4005282814D
:1012400004E082894DF6FF731A4082817047F0B541
:101250000346002400260025002040F66A17B94204
:1012600000D100BF1846C1F3421401F01F06012748
:1012700007FA06F5012C01D10C3004E0022C01D153
:10128000103000E014301AB107682F43076002E005
:101290000768AF430760F0BD1AB1838A0B438382AE
:1012A00002E0838A8B4383827047028A4FF6F07391
:1012B0001A400282028A0A430282704782894FF2F0
:1012C000FF731A40828182890A438281704721B16B
:1012D000828942F00202828104E082894FF6FD7326
:1012E0001A4082817047028A4FF6DF731A400282E9
:1012F000028A0A430282704721B1028A42F4804284
:10130000028204E0028A4BF6FF731A4002827047A1
:10131000C1F308028280704701468888C0F3080044
:101320007047818941F0010181817047028BD2B2FF
:101330000283028B42EA012202837047028B02F48D
:101340007F420283028B0A430283704721B1828A63
:1013500042F02002828204E0828A4FF6DF731A4054
:101360008282704721B1828A42F01002828204E0B8
:10137000828A4FF6EF731A408282704721B1828AC7
:1013800042F00802828204E0828A4FF6F7731A4024
:101390008282704721B1828942F40042828103E057
:1013A0008289C2F30E028281704721B1828A42F49F
:1013B0000062828204E0828A4FF2FF731A408282C6
:1013C0007047828A4FF6FB731A408282828A0A43F0
:1013D0008282704721B1828A42F00202828204E056
:1013E000828A4FF6FD731A408282704702460020BF
:1013F000B1F5007F00D100BF13880B400BB1012075
:1014000000E00020704701F40072B2F5007F00D1C7
:1014100000BFCA430280704770B502460024002313
:101420000025002040F66A16B14200D100BFC1F38A
:10143000421501F01F03012606FA03F3012D02D124
:101440009689334006E0022D02D1168A334001E02E
:10145000968A33400C12012606FA04F416883440AA
:1014600013B10CB1012000E0002070BD10B50022C6
:10147000002340F66A14A14200D100BF0A120124E1
:101480009440A3B2DC43048010BD0000003801404A
:101490000044004000480040004C00400050004024
:1014A00010B50446F748844209D101214805FFF7E9
:1014B000B5FD00214FF40010FFF7B0FD08E0012159
:1014C0008805FFF7ABFD00214FF48000FFF7A6FD74
:1014D00010BD2DE9F04385B004460D460026B14607
:1014E0000427DFF8A483A6884FF6C070064068463C
:1014F000FFF700FDDDF80880E448B8FBF0F01FFAC4
:1015000080F946EA0906A68020884FF6FE71084059
:1015100020800026DE49286888420CD828684000D0
:10152000B8FBF0F087B2042F00DA04273E4309F13C
:101530000100208427E0E8884BF6FF71884206D13D
:10154000286800EB4000B8FBF0F087B209E028689B
:1015500000EBC00101EB0010B8FBF0F087B247F4DC
:101560008047C7F30B0008B947F0010747F4004074
:1015700006434FF4967009FB00F04FF47A7190FB2C
:10158000F1F0401C2084A683208840F001002080D8
:1015900026884FF6F5300640A88869890843064337
:1015A0002680A88929890843208105B0BDE8F083F9
:1015B00041F288310160002181804BF6FF71C180CA
:1015C0000021018141814FF480418181704721B127
:1015D000028842F00102028004E002884FF6FE73A6
:1015E0001A400280704721B1828842F400628280F2
:1015F00004E082884FF2FF731A408280704721B165
:10160000828842F48052828004E082884EF6FF7322
:101610001A408280704721B1028842F480720280B1
:1016200004E002884FF6FF631A400280704721B140
:10163000028842F40072028004E002884FF6FF53F1
:101640001A400280704721B1028842F48062028011
:1016500004E002884FF6FF331A40028070470A46C2
:10166000002181894FF60173194002F0FE031943EE
:101670008181704721B1828942F00102828104E0B8
:1016800082894FF6FE731A408281704721B1028829
:1016900042F04002028004E002884FF6BF731A4015
:1016A000028070471AB183880B43838002E08388ED
:1016B0008B4383807047018270470146088AC0B21D
:1016C000704712B141F0010102E04FF6FE7319407C
:1016D0000182704708B502460020009000920098F1
:1016E000084400900098008808BD21B1028842F4A7
:1016F0000042028003E00288C2F30E0202807047BB
:10170000B1F5006F04D1028842F40062028004E067
:1017100002884FF2FF731A4002807047B1F5005FF4
:1017200004D1028842F40052028004E002884DF69F
:10173000FF731A400280704721B1028842F4805240
:10174000028004E002884EF6FF731A400280704760
:10175000B1F5006F04D1028842F40062028004E017
:1017600002884FF2FF731A400280704721B102884D
:1017700042F02002028004E002884FF6DF731A4034
:10178000028070470146088B0012704721B1028821
:1017900042F01002028004E002884FF6EF731A4014
:1017A0000280704721B9028842F08002028004E082
:1017B00002884FF67F731A4002807047B1F5804F60
:1017C00005D0828B4BF6FF731A40828303E0828B35
:1017D00042F480428283704770B50246002400259F
:1017E00000230020958A138B1B0445EA030626F08C
:1017F0007F4404EA01068E4201D1012000E000206E
:1018000070BD10B501460020002300228B8A0A8B90
:10181000120443EA020424F07F4010BD0CB50246D6
:10182000002000230193009300920B0F019321F0FD
:101830007F41019B1BB1009B1433009303E0090C13
:10184000009B18330093009B1B680B400BB10120D9
:1018500000E000200CBD002221F07F42D3438382B0
:10186000704730B5024600200023948801F0E065FF
:1018700004EA154321F07F41948A0C4054B14BB1E6
:10188000012008E00054004000127A0040420F009E
:10189000A0860100002030BD002221F07F42D3430A
:1018A0008382704731490143314A1160704770B5F6
:1018B000002100230F22C47804B32D4C246804F4C3
:1018C000E064C4F5E064210AC1F10403CA4044782D
:1018D00004FA03F18478144021430901254C067869
:1018E000A155047804F01F050124AC4005786D1162
:1018F000AD0005F1E025C5F8004109E0047804F0E9
:101900001F050124AC401C4D0678761145F8264091
:1019100070BD1A4A0A400243154B1B1F1A607047DC
:1019200039B1134A121D12680243114B1B1D1A6074
:1019300006E00F4A121D126882430D4B1B1D1A60F0
:101940007047042808D14FF0E021096941F00401F3
:101950004FF0E022116107E04FF0E021096921F02A
:1019600004014FF0E0221161704700000000FA0509
:101970000CED00E000E400E080E100E080FFFF1FEC
:101980000CB50020019000906C48006840F4803055
:101990006A49086000BF6948006800F400300090A0
:1019A0000198401C0190009820B94FF6FF710198F2
:1019B0008842F0D16148006800F4003010B1012085
:1019C000009001E0002000900098012843D15C487D
:1019D000006840F010005A4908600846006820F08E
:1019E000030008600846006840F0020008605348A1
:1019F0004068524948600846406848600846406868
:101A000040F4806048600846406820F47C104860DC
:101A10000846406840F4E81048600846006840F016
:101A20008070086000BF4548006800F00070002822
:101A3000F9D04248406820F0030040494860084619
:101A4000406840F00200486000BF3C48406800F039
:101A50000C000828F9D10CBD10B5FFF791FF10BD9F
:101A600010B53648006840F0010034490860084667
:101A700040683449084031494860084600683249A6
:101A800008402E4908600846006820F4802008605D
:101A90000846406820F4FE0048604FF41F0088604C
:101AA000FFF7DAFF4FF000602849086010BD10B55D
:101AB000002100200022214B5B6803F00C0121B1C2
:101AC000042906D0082928D107E0214B214C2360A6
:101AD00027E01F4B1F4C236023E0184B5B6803F487
:101AE0007010164B5B6803F48032022303EB9040C6
:101AF00022B9194B4343174C23600DE00F4B5B6831
:101B000003F4003323B1144B4343124C236003E02E
:101B10000F4B43430F4C236003E00D4B0D4C2360F0
:101B200000BF00BF054B5B68C3F303130B4CE15CC4
:101B3000084B1B68CB40074C236010BD00100240CF
:101B4000002002400000FFF8FFFFF6FE08ED00E075
:101B500000127A00AC00002000093D00B000002017
:101B600010B5002200E0521C835C8C5CA34201D1C2
:101B7000002BF8D1D8B2E1B2401A10BD30B50B46F7
:101B8000014600202022012409E021FA02F59D42AD
:101B900005D303FA02F5491B04FA02F52844151E81
:101BA000A2F10102F1DC30BD064C074D06E0E06811
:101BB00040F0010394E8070098471034AC42F6D394
:101BC000FEF7BAFA501E0008701E00080FB4054B4D
:101BD00010B503A9044A029800F018F810BC5DF88B
:101BE00014FB0000A9020008C000002002E008C8A1
:101BF000121F08C1002AFAD170477047002001E087
:101C000001C1121F002AFBD1704700002DE9FF4FD0
:101C10008BB09A460F460546002606E025280BD0D5
:101C200052460D9990476D1C761C28780028F5D1F6
:101C30000FB03046BDE8F08F0024A0460122604975
:101C400000E0044315F8013F203B02FA03F008428C
:101C5000F7D128782E2817D115F8010F44F0040485
:101C60002A280ED06FF02F022878A0F13001092920
:101C70000AD808EB880102EB410100EB01086D1C5A
:101C8000F2E757F8048B6D1C287869283ED006DCF3
:101C90000028CDD063280BD0642804D136E0732807
:101CA00010D075284BD052460D999047761C85E090
:101CB00017F8040B8DF8000000208DF80100E946AC
:101CC000012003E057F8049B4FF0FF3061074FF00D
:101CD000000401D40AE0641C44450DDA8442FADBB6
:101CE00019F804100029F6D106E0641C8442FCDBDC
:101CF00019F804100029F8D1264404E019F8010B62
:101D000052460D999047641EF8D257E001CF4FF02C
:101D10000A0B002802DA40422D2102E0210504D5F9
:101D20002B218DF82410012103E0E10705D02021AB
:101D3000F7E70DF1200908910CE00021F9E701CF48
:101D40004FF00A0BF9E75946FFF718FF01F130028F
:101D500009F8012D0028F6D1ADEB090000F1200BA8
:101D6000600701D44FF00108D84502DDA8EB0B0055
:101D700000E000208046002406E009A85246005DED
:101D80000D999047641C761C08988442F5DB04E0AA
:101D9000302052460D999047761CB8F10001A8F109
:101DA0000108F5DC05E019F8010B52460D99904742
:101DB000761CBBF10001ABF1010BF4DC6D1C34E7C8
:101DC0000928010048573A312E30300053573A3134
:101DD0002E30300068627000696F000041542B455E
:101DE00043474F464600000041542B48505F4F4642
:101DF0004600000041542B555046000041542B45ED
:101E000043474F4E0000000041542B48505F4F4E57
:101E10000000000041542B425000000041542B4868
:101E20005645520041542B535645520041542B48BD
:101E3000595645520000000041542B485200000002
:101E400041542B504B45590041542B534B4559009D
:101E5000701E000800000020C4000000EC1B0008F9
:101E6000341F0008C400002074040000FC1B00089C
:101E7000D41D0008C41D0008CC1D0008C4000020AB
:101E8000EB0600087F06000891060008B906000866
:101E9000000000200010002000400080D81D000835
:101EA0000A0000009D0700082D07000851070008E0
:101EB0002C000020000000001C1E0008241E00084A
:101EC0002C1E0008081E0008E81D0008381E000827
:101ED000141E0008FC1D0008DC1D0008F41D00088D
:101EE000401E0008481E000800000000000000001E
:101EF00000000000000000000000000000000000E2
:101F000000000000000000000000000001020304C7
:101F100001020304060708090204060800A24A0495
:101F20000000000000000000010203040607080989
:041F300000000000AD
:040000050800097175
:00000001FF
